{
  "transactions": [
    {
      "hash": "0x10bfad99a73dcc17836d9ffdcb7ed763b5b53b0af36d4e9d9e195eead2be0703",
      "transactionType": "CREATE",
      "contractName": "MyMinusCalculator",
      "contractAddress": "0xb48080411aa468393dfa34aaade40aad865e202b",
      "function": null,
      "arguments": null,
      "transaction": {
        "from": "0x965b0e63e00e7805569ee3b428cf96330dfc57ef",
        "gas": "0x1f3dd",
        "value": "0x0",
        "input": "0x608060405234801561000f575f80fd5b5060d08061001c5f395ff3fe6080604052348015600e575f80fd5b50600436106026575f3560e01c8063f4f3bdc114602a575b5f80fd5b60396035366004605d565b604b565b60405190815260200160405180910390f35b5f60548284607c565b90505b92915050565b5f8060408385031215606d575f80fd5b50508035926020909101359150565b81810381811115605757634e487b7160e01b5f52601160045260245ffdfea2646970667358221220e7c584cfab3a60a9dcfc7d4ef44bad1d133deb153997d39cc190aa64496a9eb064736f6c63430008180033",
        "nonce": "0x24a",
        "chainId": "0xaa36a7"
      },
      "additionalContracts": [],
      "isFixedGasLimit": false
    },
    {
      "hash": "0x18c036f1c028fdc9576ae46596938de8b49fc3a74cb4da08b180b968c4b37973",
      "transactionType": "CALL",
      "contractName": null,
      "contractAddress": "0x3b512b5581f208cf320d93fb87efacb38828a18e",
      "function": "setMinusCalculator(address)",
      "arguments": [
        "0xb48080411AA468393dfA34AAaDE40aAD865e202b"
      ],
      "transaction": {
        "from": "0x965b0e63e00e7805569ee3b428cf96330dfc57ef",
        "to": "0x3b512b5581f208cf320d93fb87efacb38828a18e",
        "gas": "0xed93",
        "value": "0x0",
        "input": "0x2931eb32000000000000000000000000b48080411aa468393dfa34aaade40aad865e202b",
        "nonce": "0x24b",
        "chainId": "0xaa36a7"
      },
      "additionalContracts": [],
      "isFixedGasLimit": false
    }
  ],
  "receipts": [
    {
      "status": "0x1",
      "cumulativeGasUsed": "0x6e9757",
      "logs": [],
      "logsBloom": "0x00000000000000000000000000000000000000000000000000000000000000000000000000000000000000000000000000000000000000000000000000000000000000000000000000000000000000000000000000000000000000000000000000000000000000000000000000000000000000000000000000000000000000000000000000000000000000000000000000000000000000000000000000000000000000000000000000000000000000000000000000000000000000000000000000000000000000000000000000000000000000000000000000000000000000000000000000000000000000000000000000000000000000000000000000000000",
      "type": "0x2",
      "transactionHash": "0x10bfad99a73dcc17836d9ffdcb7ed763b5b53b0af36d4e9d9e195eead2be0703",
      "transactionIndex": "0x40",
      "blockHash": "0x82ae0ab2f773caeda477bddf27591970438e22651fd1a551d5a42dc89eb2b734",
      "blockNumber": "0x5d7215",
      "gasUsed": "0x18083",
      "effectiveGasPrice": "0x37f942",
      "from": "0x965b0e63e00e7805569ee3b428cf96330dfc57ef",
      "to": null,
      "contractAddress": "0xb48080411aa468393dfa34aaade40aad865e202b"
    },
    {
      "status": "0x1",
      "cumulativeGasUsed": "0x6f4357",
      "logs": [],
      "logsBloom": "0x00000000000000000000000000000000000000000000000000000000000000000000000000000000000000000000000000000000000000000000000000000000000000000000000000000000000000000000000000000000000000000000000000000000000000000000000000000000000000000000000000000000000000000000000000000000000000000000000000000000000000000000000000000000000000000000000000000000000000000000000000000000000000000000000000000000000000000000000000000000000000000000000000000000000000000000000000000000000000000000000000000000000000000000000000000000",
      "type": "0x2",
      "transactionHash": "0x18c036f1c028fdc9576ae46596938de8b49fc3a74cb4da08b180b968c4b37973",
      "transactionIndex": "0x41",
      "blockHash": "0x82ae0ab2f773caeda477bddf27591970438e22651fd1a551d5a42dc89eb2b734",
      "blockNumber": "0x5d7215",
      "gasUsed": "0xac00",
      "effectiveGasPrice": "0x37f942",
      "from": "0x965b0e63e00e7805569ee3b428cf96330dfc57ef",
      "to": "0x3b512b5581f208cf320d93fb87efacb38828a18e",
      "contractAddress": null
    }
  ],
  "libraries": [],
  "pending": [],
  "returns": {},
  "timestamp": 1718593843,
  "chain": 11155111,
  "commit": "7ceb0b7"
}