{
  "transactions": [
    {
      "hash": "0x91cc44c2f1df355749307c975f5645fa2e62c62d63955891edef158a4f6d268d",
      "transactionType": "CALL",
      "contractName": null,
      "contractAddress": "0x17b4bcb258dcb16dbe215759f6bb10720a892743",
      "function": "transferFrom(address,address,uint256)",
      "arguments": [
        "0xB2b0CECc1d064Cd75C65A03292E131E4a700e0Dd",
        "0x965B0E63e00E7805569ee3B428Cf96330DFc57EF",
        "20000000000000000000"
      ],
      "transaction": {
        "from": "0x965b0e63e00e7805569ee3b428cf96330dfc57ef",
        "to": "0x17b4bcb258dcb16dbe215759f6bb10720a892743",
        "gas": "0x12cd4",
        "value": "0x0",
        "input": "0x23b872dd000000000000000000000000b2b0cecc1d064cd75c65a03292e131e4a700e0dd000000000000000000000000965b0e63e00e7805569ee3b428cf96330dfc57ef000000000000000000000000000000000000000000000001158e460913d00000",
        "nonce": "0x263",
        "chainId": "0xaa36a7"
      },
      "additionalContracts": [],
      "isFixedGasLimit": false
    }
  ],
  "receipts": [
    {
      "status": "0x1",
      "cumulativeGasUsed": "0x1274a66",
      "logs": [
        {
          "address": "0x17b4bcb258dcb16dbe215759f6bb10720a892743",
          "topics": [
            "0x8c5be1e5ebec7d5bd14f71427d1e84f3dd0314c0f7b2291e5b200ac8c7c3b925",
            "0x000000000000000000000000b2b0cecc1d064cd75c65a03292e131e4a700e0dd",
            "0x000000000000000000000000965b0e63e00e7805569ee3b428cf96330dfc57ef"
          ],
          "data": "0x0000000000000000000000000000000000000000000000000000000000000000",
          "blockHash": "0x1acab6d6b8f48a0c353eabaf88f722144a00db2dc4cc9d2e453aa72a56bbcad1",
          "blockNumber": "0x5d7255",
          "transactionHash": "0x91cc44c2f1df355749307c975f5645fa2e62c62d63955891edef158a4f6d268d",
          "transactionIndex": "0x40",
          "logIndex": "0x144",
          "removed": false
        },
        {
          "address": "0x17b4bcb258dcb16dbe215759f6bb10720a892743",
          "topics": [
            "0xddf252ad1be2c89b69c2b068fc378daa952ba7f163c4a11628f55a4df523b3ef",
            "0x000000000000000000000000b2b0cecc1d064cd75c65a03292e131e4a700e0dd",
            "0x000000000000000000000000965b0e63e00e7805569ee3b428cf96330dfc57ef"
          ],
          "data": "0x000000000000000000000000000000000000000000000001158e460913d00000",
          "blockHash": "0x1acab6d6b8f48a0c353eabaf88f722144a00db2dc4cc9d2e453aa72a56bbcad1",
          "blockNumber": "0x5d7255",
          "transactionHash": "0x91cc44c2f1df355749307c975f5645fa2e62c62d63955891edef158a4f6d268d",
          "transactionIndex": "0x40",
          "logIndex": "0x145",
          "removed": false
        }
      ],
      "logsBloom": "0x00000000000000000000000000000000000000000000000000000000000000000000000000000000000000000000000000000000000000000000000000200000000000000002000000000008000004100000000000000000000000000000000000000000000000000000080000000000000000000000000000000010000000000000000000000000000000040000000000000000000000000000000000000000020000000000000000000000020000000000000000000000000000000000000000000002000000000000000000000000000000200000000800000000000000000010000000000000000000000000000000000000200000000000000000000000",
      "type": "0x2",
      "transactionHash": "0x91cc44c2f1df355749307c975f5645fa2e62c62d63955891edef158a4f6d268d",
      "transactionIndex": "0x40",
      "blockHash": "0x1acab6d6b8f48a0c353eabaf88f722144a00db2dc4cc9d2e453aa72a56bbcad1",
      "blockNumber": "0x5d7255",
      "gasUsed": "0xd9cc",
      "effectiveGasPrice": "0x641844",
      "from": "0x965b0e63e00e7805569ee3b428cf96330dfc57ef",
      "to": "0x17b4bcb258dcb16dbe215759f6bb10720a892743",
      "contractAddress": null
    }
  ],
  "libraries": [],
  "pending": [],
  "returns": {},
  "timestamp": 1718594645,
  "chain": 11155111,
  "commit": "7ceb0b7"
}