{
  "transactions": [
    {
      "hash": "0x55aec2b9576b83dcfd9349b4d842fddc8b7f4bce010dc57a8364718ad58977c5",
      "transactionType": "CREATE",
      "contractName": "MyMultiplicationCalculator",
      "contractAddress": "0x4941cbe13009bd5da02385b8039184eb5f949dde",
      "function": null,
      "arguments": null,
      "transaction": {
        "from": "0x965b0e63e00e7805569ee3b428cf96330dfc57ef",
        "gas": "0x1f840",
        "value": "0x0",
        "input": "0x608060405234801561000f575f80fd5b5060d48061001c5f395ff3fe6080604052348015600e575f80fd5b50600436106026575f3560e01c8063165c4a1614602a575b5f80fd5b60396035366004605d565b604b565b60405190815260200160405180910390f35b5f60548284607c565b90505b92915050565b5f8060408385031215606d575f80fd5b50508035926020909101359150565b8082028115828204841417605757634e487b7160e01b5f52601160045260245ffdfea2646970667358221220a79e076ca8fcaf0abce423f419a5767f04353da6d6ee466db3a12a9a7d1bb51864736f6c63430008180033",
        "nonce": "0x24e",
        "chainId": "0xaa36a7"
      },
      "additionalContracts": [],
      "isFixedGasLimit": false
    },
    {
      "hash": "0x9b955f7d96b5d2d41bf11d7b644887e99ccb70059f71a59ffba6b7879ce26e8f",
      "transactionType": "CALL",
      "contractName": null,
      "contractAddress": "0xf5ae2367fdab0903dc9a4bd0d695a1b427831683",
      "function": "setMultiplicationCalculator(address)",
      "arguments": [
        "0x4941cBe13009BD5DA02385B8039184Eb5f949ddE"
      ],
      "transaction": {
        "from": "0x965b0e63e00e7805569ee3b428cf96330dfc57ef",
        "to": "0xf5ae2367fdab0903dc9a4bd0d695a1b427831683",
        "gas": "0xed93",
        "value": "0x0",
        "input": "0x218fefdc0000000000000000000000004941cbe13009bd5da02385b8039184eb5f949dde",
        "nonce": "0x24f",
        "chainId": "0xaa36a7"
      },
      "additionalContracts": [],
      "isFixedGasLimit": false
    }
  ],
  "receipts": [
    {
      "status": "0x1",
      "cumulativeGasUsed": "0xa5c872",
      "logs": [],
      "logsBloom": "0x00000000000000000000000000000000000000000000000000000000000000000000000000000000000000000000000000000000000000000000000000000000000000000000000000000000000000000000000000000000000000000000000000000000000000000000000000000000000000000000000000000000000000000000000000000000000000000000000000000000000000000000000000000000000000000000000000000000000000000000000000000000000000000000000000000000000000000000000000000000000000000000000000000000000000000000000000000000000000000000000000000000000000000000000000000000",
      "type": "0x2",
      "transactionHash": "0x55aec2b9576b83dcfd9349b4d842fddc8b7f4bce010dc57a8364718ad58977c5",
      "transactionIndex": "0x44",
      "blockHash": "0x6bddde93f256d99340ab18f6f64a139198e393885532687da614437e75e75612",
      "blockNumber": "0x5d721e",
      "gasUsed": "0x183e3",
      "effectiveGasPrice": "0x38dd72",
      "from": "0x965b0e63e00e7805569ee3b428cf96330dfc57ef",
      "to": null,
      "contractAddress": "0x4941cbe13009bd5da02385b8039184eb5f949dde"
    },
    {
      "status": "0x1",
      "cumulativeGasUsed": "0xa67472",
      "logs": [],
      "logsBloom": "0x00000000000000000000000000000000000000000000000000000000000000000000000000000000000000000000000000000000000000000000000000000000000000000000000000000000000000000000000000000000000000000000000000000000000000000000000000000000000000000000000000000000000000000000000000000000000000000000000000000000000000000000000000000000000000000000000000000000000000000000000000000000000000000000000000000000000000000000000000000000000000000000000000000000000000000000000000000000000000000000000000000000000000000000000000000000",
      "type": "0x2",
      "transactionHash": "0x9b955f7d96b5d2d41bf11d7b644887e99ccb70059f71a59ffba6b7879ce26e8f",
      "transactionIndex": "0x45",
      "blockHash": "0x6bddde93f256d99340ab18f6f64a139198e393885532687da614437e75e75612",
      "blockNumber": "0x5d721e",
      "gasUsed": "0xac00",
      "effectiveGasPrice": "0x38dd72",
      "from": "0x965b0e63e00e7805569ee3b428cf96330dfc57ef",
      "to": "0xf5ae2367fdab0903dc9a4bd0d695a1b427831683",
      "contractAddress": null
    }
  ],
  "libraries": [],
  "pending": [],
  "returns": {},
  "timestamp": 1718593953,
  "chain": 11155111,
  "commit": "7ceb0b7"
}