{
  "transactions": [
    {
      "hash": "0x81d2ab090203fc6a4913d3a5d99ee9aa2abfd8becde0fa7f168c4f2290eb7724",
      "transactionType": "CALL",
      "contractName": null,
      "contractAddress": "0x395f9350d602795cb4962ffda671407796fdde4f",
      "function": "permit(address,address,uint256,uint256,uint8,bytes32,bytes32)",
      "arguments": [
        "0x965B0E63e00E7805569ee3B428Cf96330DFc57EF",
        "0x395F9350d602795cB4962ffdA671407796Fdde4f",
        "20000000000000000000",
        "1718764728",
        "28",
        "0xf64bf0fb76b551a83e38682b0fcff490a826a9620260df7d457225d5680b13e2",
        "0x162e73aa1cca6950f7f15c5c438740166dc22b15eb5036b7db3dee5ab1243d6c"
      ],
      "transaction": {
        "from": "0x965b0e63e00e7805569ee3b428cf96330dfc57ef",
        "to": "0x395f9350d602795cb4962ffda671407796fdde4f",
        "gas": "0x1bc1a",
        "value": "0x0",
        "input": "0xd505accf000000000000000000000000965b0e63e00e7805569ee3b428cf96330dfc57ef000000000000000000000000395f9350d602795cb4962ffda671407796fdde4f000000000000000000000000000000000000000000000001158e460913d0000000000000000000000000000000000000000000000000000000000000667244b8000000000000000000000000000000000000000000000000000000000000001cf64bf0fb76b551a83e38682b0fcff490a826a9620260df7d457225d5680b13e2162e73aa1cca6950f7f15c5c438740166dc22b15eb5036b7db3dee5ab1243d6c",
        "nonce": "0x270",
        "chainId": "0xaa36a7"
      },
      "additionalContracts": [],
      "isFixedGasLimit": false
    }
  ],
  "receipts": [
    {
      "status": "0x1",
      "cumulativeGasUsed": "0x6f0588",
      "logs": [
        {
          "address": "0x395f9350d602795cb4962ffda671407796fdde4f",
          "topics": [
            "0x8c5be1e5ebec7d5bd14f71427d1e84f3dd0314c0f7b2291e5b200ac8c7c3b925",
            "0x000000000000000000000000965b0e63e00e7805569ee3b428cf96330dfc57ef",
            "0x000000000000000000000000395f9350d602795cb4962ffda671407796fdde4f"
          ],
          "data": "0x000000000000000000000000000000000000000000000001158e460913d00000",
          "blockHash": "0xbb4a66277e3970a27bdd3f958f7f8816dd03dc77b57bcf6c16e04a7e103c9769",
          "blockNumber": "0x5d8c6b",
          "transactionHash": "0x81d2ab090203fc6a4913d3a5d99ee9aa2abfd8becde0fa7f168c4f2290eb7724",
          "transactionIndex": "0x3b",
          "logIndex": "0x6d",
          "removed": false
        }
      ],
      "logsBloom": "0x00000000000000000000000000000000000000000000000000000000000000000000000000000000000000000000000000000000000000000000000000200000000000000002000000000000000804100000000000000000000000000000000000000000000000000000000000000000000000000000000000000000000000000000000000000000000000000000000000000000000000000000000000000000020000000000000000000000000000000000000000000000000000000000000000000000100000000000000008000008000000000000000002000000000000000010800000000000000000000000000000000000000000000000000000000000",
      "type": "0x2",
      "transactionHash": "0x81d2ab090203fc6a4913d3a5d99ee9aa2abfd8becde0fa7f168c4f2290eb7724",
      "transactionIndex": "0x3b",
      "blockHash": "0xbb4a66277e3970a27bdd3f958f7f8816dd03dc77b57bcf6c16e04a7e103c9769",
      "blockNumber": "0x5d8c6b",
      "gasUsed": "0x12fa9",
      "effectiveGasPrice": "0x2db76d39",
      "from": "0x965b0e63e00e7805569ee3b428cf96330dfc57ef",
      "to": "0x395f9350d602795cb4962ffda671407796fdde4f",
      "contractAddress": null
    }
  ],
  "libraries": [],
  "pending": [],
  "returns": {},
  "timestamp": 1718678369,
  "chain": 11155111,
  "commit": "4b1fc82"
}